{
  "contractName": "Bank2",
  "abi": [
    {
      "inputs": [
        {
          "internalType": "uint256",
          "name": "amount",
          "type": "uint256"
        }
      ],
      "stateMutability": "nonpayable",
      "type": "constructor"
    },
    {
      "inputs": [
        {
          "internalType": "uint256",
          "name": "amount",
          "type": "uint256"
        }
      ],
      "name": "deposit",
      "outputs": [],
      "stateMutability": "nonpayable",
      "type": "function"
    },
    {
      "inputs": [
        {
          "internalType": "uint256",
          "name": "amount",
          "type": "uint256"
        }
      ],
      "name": "withdraw",
      "outputs": [],
      "stateMutability": "nonpayable",
      "type": "function"
    },
    {
      "inputs": [],
      "name": "balance",
      "outputs": [
        {
          "internalType": "uint256",
          "name": "",
          "type": "uint256"
        }
      ],
      "stateMutability": "view",
      "type": "function"
    },
    {
      "inputs": [
        {
          "internalType": "uint256",
          "name": "amount",
          "type": "uint256"
        }
      ],
      "name": "checkSaving",
      "outputs": [
        {
          "internalType": "bool",
          "name": "",
          "type": "bool"
        }
      ],
      "stateMutability": "view",
      "type": "function"
    },
    {
      "inputs": [],
      "name": "loan",
      "outputs": [
        {
          "internalType": "bool",
          "name": "",
          "type": "bool"
        }
      ],
      "stateMutability": "view",
      "type": "function"
    }
  ],
  "bytecode": "0x608060405234801561001057600080fd5b5060405161028838038061028883398101604081905261002f91610049565b60005560018054600160a060020a03191633179055610062565b60006020828403121561005b57600080fd5b5051919050565b610217806100716000396000f3fe608060405234801561001057600080fd5b5060043610610073577c01000000000000000000000000000000000000000000000000000000006000350463159041c681146100785780632e1a7d4d146100a3578063b69ef8a8146100b8578063b6b55f25146100c9578063d285b7b4146100dc575b600080fd5b61008e61008636600461016a565b600054101590565b60405190151581526020015b60405180910390f35b6100b66100b136600461016a565b6100e6565b005b60005460405190815260200161009a565b6100b66100d736600461016a565b610135565b600054151561008e565b60015473ffffffffffffffffffffffffffffffffffffffff16331461010a57600080fd5b61011681600054101590565b15610132578060008082825461012c91906101b2565b90915550505b50565b60015473ffffffffffffffffffffffffffffffffffffffff16331461015957600080fd5b8060008082825461012c91906101c9565b60006020828403121561017c57600080fd5b5035919050565b7f4e487b7100000000000000000000000000000000000000000000000000000000600052601160045260246000fd5b6000828210156101c4576101c4610183565b500390565b600082198211156101dc576101dc610183565b50019056fea26469706673582212208b4a0a67458cb0da7873eb73bbb5d4d643452fac28bb00bb4f6e71b25b14369564736f6c634300080a0033",
  "immutableReferences": {},
  "source": "pragma solidity ^0.8.10;\n\ninterface Regulator2 {\n  function checkSaving(uint amount) external returns (bool);\n  function loan() external returns (bool);\n}\ncontract Bank2 is Regulator2 {\n  uint private saving;\n  address private owner;\n\n  modifier ownerFunc {\n    require(owner == msg.sender); // require, revert, assert\n    _; // 接下來要執行的 function\n  }\n\n  constructor(uint amount) {\n    saving = amount;\n    owner = msg.sender;\n  }\n\n  function deposit(uint amount) public ownerFunc {\n    saving +=amount;\n  }\n\n  function withdraw(uint amount) public ownerFunc {\n    if (checkSaving((amount))) {\n     saving -=amount;\n    }\n  }\n\n  function balance() public view returns(uint) {\n    return saving;\n  }\n\n  function checkSaving(uint amount) public view returns (bool) {\n    return saving >= amount;\n  }\n\n  function loan() public view returns (bool) {\n    return saving > 0;\n  }\n}\ncontract tutorial_3_modifiers_and_error_handle is Bank2(10) {\n  string private name;\n  uint private age;\n\n  function setName(string memory newName) public {\n    name = newName;\n  }\n\n  function getName() public view returns(string memory) {\n    return name;\n  }\n\n  function setAge(uint myAge) public {\n    age = myAge;\n  }\n\n  function getAge() public view returns(uint) {\n    return age;\n  }\n}",
  "sourcePath": "/Users/zuray/Documents/projects/kryptoCamp/Camp1/tz/learn-solidity/contracts/tutorial_3_modifiers_and_error_handle.sol",
  "compiler": {
    "name": "solc",
    "version": "0.8.10+commit.fc410830.Emscripten.clang"
  },
  "schemaVersion": "3.4.4",
  "updatedAt": "2022-01-06T09:18:32.940Z",
  "devdoc": {
    "kind": "dev",
    "methods": {},
    "version": 1
  },
  "userdoc": {
    "kind": "user",
    "methods": {},
    "version": 1
  }
}