{
  "contractName": "Bank",
  "abi": [
    {
      "inputs": [
        {
          "internalType": "uint256",
          "name": "amount",
          "type": "uint256"
        }
      ],
      "stateMutability": "nonpayable",
      "type": "constructor"
    },
    {
      "inputs": [
        {
          "internalType": "uint256",
          "name": "amount",
          "type": "uint256"
        }
      ],
      "name": "deposit",
      "outputs": [],
      "stateMutability": "nonpayable",
      "type": "function"
    },
    {
      "inputs": [
        {
          "internalType": "uint256",
          "name": "amount",
          "type": "uint256"
        }
      ],
      "name": "withdraw",
      "outputs": [],
      "stateMutability": "nonpayable",
      "type": "function"
    },
    {
      "inputs": [],
      "name": "balance",
      "outputs": [
        {
          "internalType": "uint256",
          "name": "",
          "type": "uint256"
        }
      ],
      "stateMutability": "view",
      "type": "function"
    },
    {
      "inputs": [
        {
          "internalType": "uint256",
          "name": "amount",
          "type": "uint256"
        }
      ],
      "name": "checkValue",
      "outputs": [
        {
          "internalType": "bool",
          "name": "",
          "type": "bool"
        }
      ],
      "stateMutability": "view",
      "type": "function"
    },
    {
      "inputs": [],
      "name": "loan",
      "outputs": [
        {
          "internalType": "bool",
          "name": "",
          "type": "bool"
        }
      ],
      "stateMutability": "view",
      "type": "function"
    }
  ],
  "bytecode": "0x608060405234801561001057600080fd5b5060405161021c38038061021c83398101604081905261002f91610037565b600055610050565b60006020828403121561004957600080fd5b5051919050565b6101bd8061005f6000396000f3fe608060405234801561001057600080fd5b5060043610610073577c0100000000000000000000000000000000000000000000000000000000600035046318db62fb81146100785780632e1a7d4d146100a3578063b69ef8a8146100b8578063b6b55f25146100c9578063d285b7b4146100dc575b600080fd5b61008e610086366004610110565b600054101590565b60405190151581526020015b60405180910390f35b6100b66100b1366004610110565b6100e6565b005b60005460405190815260200161009a565b6100b66100d7366004610110565b6100ff565b600054151561008e565b806000808282546100f79190610158565b909155505050565b806000808282546100f7919061016f565b60006020828403121561012257600080fd5b5035919050565b7f4e487b7100000000000000000000000000000000000000000000000000000000600052601160045260246000fd5b60008282101561016a5761016a610129565b500390565b6000821982111561018257610182610129565b50019056fea2646970667358221220b87ca6172608891d212173543b04d9b9b2968bfd88fa7f52438414faeac9f4f064736f6c634300080a0033",
  "immutableReferences": {},
  "source": "pragma solidity ^0.8.10;\n\ninterface Regulator {\n  function checkValue(uint amount) external returns (bool);\n  function loan() external returns (bool);\n}\ncontract Bank is Regulator {\n  uint private value;\n\n  constructor(uint amount) {\n    value = amount;\n  }\n\n  function deposit(uint amount) public {\n    value +=amount;\n  }\n\n  function withdraw(uint amount) public {\n    value -=amount;\n  }\n\n  function balance() public view returns(uint) {\n    return value;\n  }\n\n  function checkValue(uint amount) public view returns (bool) {\n    return value >= amount;\n  }\n\n  function loan() public view returns (bool) {\n    return value > 0;\n  }\n}\ncontract tutorial_2_inheritance is Bank(10) {\n  string private name;\n  uint private age;\n\n  function setName(string memory newName) public {\n    name = newName;\n  }\n\n  function getName() public view returns(string memory) {\n    return name;\n  }\n\n  function setAge(uint myAge) public {\n    age = myAge;\n  }\n\n  function getAge() public view returns(uint) {\n    return age;\n  }\n}",
  "sourcePath": "/Users/zuray/Documents/projects/kryptoCamp/Camp1/tz/learn-solidity/contracts/tutorial_2_inheritance.sol",
  "compiler": {
    "name": "solc",
    "version": "0.8.10+commit.fc410830.Emscripten.clang"
  },
  "schemaVersion": "3.4.4",
  "updatedAt": "2022-01-06T08:05:05.721Z",
  "devdoc": {
    "kind": "dev",
    "methods": {},
    "version": 1
  },
  "userdoc": {
    "kind": "user",
    "methods": {},
    "version": 1
  }
}