{
  "contractName": "IntExtended",
  "abi": [
    {
      "inputs": [
        {
          "internalType": "uint256",
          "name": "_self",
          "type": "uint256"
        }
      ],
      "name": "increment",
      "outputs": [
        {
          "internalType": "uint256",
          "name": "",
          "type": "uint256"
        }
      ],
      "stateMutability": "pure",
      "type": "function",
      "constant": true
    },
    {
      "inputs": [
        {
          "internalType": "uint256",
          "name": "_self",
          "type": "uint256"
        }
      ],
      "name": "decrement",
      "outputs": [
        {
          "internalType": "uint256",
          "name": "",
          "type": "uint256"
        }
      ],
      "stateMutability": "pure",
      "type": "function",
      "constant": true
    },
    {
      "inputs": [
        {
          "internalType": "uint256",
          "name": "_self",
          "type": "uint256"
        },
        {
          "internalType": "uint256",
          "name": "_value",
          "type": "uint256"
        }
      ],
      "name": "incrementByValue",
      "outputs": [
        {
          "internalType": "uint256",
          "name": "",
          "type": "uint256"
        }
      ],
      "stateMutability": "pure",
      "type": "function",
      "constant": true
    },
    {
      "inputs": [
        {
          "internalType": "uint256",
          "name": "_self",
          "type": "uint256"
        },
        {
          "internalType": "uint256",
          "name": "_value",
          "type": "uint256"
        }
      ],
      "name": "decrementByValue",
      "outputs": [
        {
          "internalType": "uint256",
          "name": "",
          "type": "uint256"
        }
      ],
      "stateMutability": "pure",
      "type": "function",
      "constant": true
    }
  ],
  "bytecode": "0x6101e3610053600b82828239805160001a607314610046577f4e487b7100000000000000000000000000000000000000000000000000000000600052600060045260246000fd5b30600052607381538281f3fe7300000000000000000000000000000000000000003014608060405260043610610072577c010000000000000000000000000000000000000000000000000000000060003504633a9ebefd81146100775780637669a6401461009c5780637cf5dab0146100af578063dccce74d146100c2575b600080fd5b61008a610085366004610114565b6100d5565b60405190815260200160405180910390f35b61008a6100aa36600461012d565b6100e8565b61008a6100bd366004610114565b6100fb565b61008a6100d036600461012d565b610108565b60006100e260018361017e565b92915050565b60006100f48284610195565b9392505050565b60006100e2826001610195565b60006100f4828461017e565b60006020828403121561012657600080fd5b5035919050565b6000806040838503121561014057600080fd5b50508035926020909101359150565b7f4e487b7100000000000000000000000000000000000000000000000000000000600052601160045260246000fd5b6000828210156101905761019061014f565b500390565b600082198211156101a8576101a861014f565b50019056fea264697066735822122017b397921d4ad6dca8e9c6f8fc34b6513791ad1cfd3e54cbadb56536053dd15464736f6c634300080a0033",
  "immutableReferences": {},
  "source": "pragma solidity ^0.8.10;\n\nlibrary IntExtended {\n  function increment(uint _self) public pure returns(uint) {\n    return _self + 1;\n  }\n\n  function decrement(uint _self) public pure returns(uint) {\n    return _self - 1;\n  }\n\n  function incrementByValue(uint _self, uint _value) public pure returns(uint) {\n    return _self + _value;\n  }\n\n  function decrementByValue(uint _self, uint _value) public pure returns(uint) {\n    return _self - _value;\n  }\n}\n\ncontract tutorial_4_imports_and_libraries {\n  using IntExtended for uint;\n\n  function testIncrement(uint _base) public pure returns (uint) {\n    return _base.increment();\n  }\n\n  function testDecrement(uint _base) public pure returns (uint) {\n    return _base.decrement();\n  }\n\n  function testIncrementByValue(uint _base, uint _value) public pure returns (uint) {\n    return _base.incrementByValue(_value);\n  }\n\n  function testDecrementByValue(uint _base, uint _value) public pure returns (uint) {\n    return _base.decrementByValue(_value);\n  }\n}",
  "sourcePath": "/Users/zuray/Documents/projects/kryptoCamp/learn-solidity/contracts/tutorial_4_imports_and_libraries.sol",
  "compiler": {
    "name": "solc",
    "version": "0.8.10+commit.fc410830.Emscripten.clang"
  },
  "schemaVersion": "3.4.4",
  "updatedAt": "2022-01-06T12:10:59.602Z",
  "networkType": "ethereum",
  "devdoc": {
    "kind": "dev",
    "methods": {},
    "version": 1
  },
  "userdoc": {
    "kind": "user",
    "methods": {},
    "version": 1
  }
}