{
  "contractName": "MyFirstContract",
  "abi": [
    {
      "inputs": [],
      "name": "balance",
      "outputs": [
        {
          "internalType": "uint256",
          "name": "",
          "type": "uint256"
        }
      ],
      "stateMutability": "view",
      "type": "function"
    },
    {
      "inputs": [
        {
          "internalType": "uint256",
          "name": "amount",
          "type": "uint256"
        }
      ],
      "name": "checkValue",
      "outputs": [
        {
          "internalType": "bool",
          "name": "",
          "type": "bool"
        }
      ],
      "stateMutability": "nonpayable",
      "type": "function"
    },
    {
      "inputs": [
        {
          "internalType": "uint256",
          "name": "amount",
          "type": "uint256"
        }
      ],
      "name": "deposit",
      "outputs": [],
      "stateMutability": "nonpayable",
      "type": "function"
    },
    {
      "inputs": [],
      "name": "loan",
      "outputs": [
        {
          "internalType": "bool",
          "name": "",
          "type": "bool"
        }
      ],
      "stateMutability": "nonpayable",
      "type": "function"
    },
    {
      "inputs": [
        {
          "internalType": "uint256",
          "name": "amount",
          "type": "uint256"
        }
      ],
      "name": "withdraw",
      "outputs": [],
      "stateMutability": "nonpayable",
      "type": "function"
    },
    {
      "inputs": [
        {
          "internalType": "string",
          "name": "newName",
          "type": "string"
        }
      ],
      "name": "setName",
      "outputs": [],
      "stateMutability": "nonpayable",
      "type": "function"
    },
    {
      "inputs": [],
      "name": "getName",
      "outputs": [
        {
          "internalType": "string",
          "name": "",
          "type": "string"
        }
      ],
      "stateMutability": "view",
      "type": "function"
    },
    {
      "inputs": [
        {
          "internalType": "uint256",
          "name": "newAge",
          "type": "uint256"
        }
      ],
      "name": "setAge",
      "outputs": [],
      "stateMutability": "nonpayable",
      "type": "function"
    },
    {
      "inputs": [],
      "name": "getAge",
      "outputs": [
        {
          "internalType": "uint256",
          "name": "",
          "type": "uint256"
        }
      ],
      "stateMutability": "view",
      "type": "function"
    }
  ],
  "bytecode": "0x608060405234801561001057600080fd5b50600a80600081905550506107dc8061002a6000396000f3fe608060405234801561001057600080fd5b50600436106100935760003560e01c8063b69ef8a811610066578063b69ef8a814610120578063b6b55f251461013e578063c47f00271461015a578063d285b7b414610176578063d5dcf1271461019457610093565b806317d7de7c1461009857806318db62fb146100b65780632e1a7d4d146100e6578063967e6e6514610102575b600080fd5b6100a06101b0565b6040516100ad9190610415565b60405180910390f35b6100d060048036038101906100cb9190610481565b610242565b6040516100dd91906104c9565b60405180910390f35b61010060048036038101906100fb9190610481565b610251565b005b61010a61027b565b60405161011791906104f3565b60405180910390f35b610128610285565b60405161013591906104f3565b60405180910390f35b61015860048036038101906101539190610481565b61028e565b005b610174600480360381019061016f9190610643565b6102a9565b005b61017e6102c3565b60405161018b91906104c9565b60405180910390f35b6101ae60048036038101906101a99190610481565b6102cf565b005b6060600180546101bf906106bb565b80601f01602080910402602001604051908101604052809291908181526020018280546101eb906106bb565b80156102385780601f1061020d57610100808354040283529160200191610238565b820191906000526020600020905b81548152906001019060200180831161021b57829003601f168201915b5050505050905090565b60008160005410159050919050565b61025a81610242565b156102785780600080828254610270919061071c565b925050819055505b50565b6000600254905090565b60008054905090565b8060008082825461029f9190610750565b9250508190555050565b80600190805190602001906102bf9291906102d9565b5050565b60008060005411905090565b8060028190555050565b8280546102e5906106bb565b90600052602060002090601f016020900481019282610307576000855561034e565b82601f1061032057805160ff191683800117855561034e565b8280016001018555821561034e579182015b8281111561034d578251825591602001919060010190610332565b5b50905061035b919061035f565b5090565b5b80821115610378576000816000905550600101610360565b5090565b600081519050919050565b600082825260208201905092915050565b60005b838110156103b657808201518184015260208101905061039b565b838111156103c5576000848401525b50505050565b6000601f19601f8301169050919050565b60006103e78261037c565b6103f18185610387565b9350610401818560208601610398565b61040a816103cb565b840191505092915050565b6000602082019050818103600083015261042f81846103dc565b905092915050565b6000604051905090565b600080fd5b600080fd5b6000819050919050565b61045e8161044b565b811461046957600080fd5b50565b60008135905061047b81610455565b92915050565b60006020828403121561049757610496610441565b5b60006104a58482850161046c565b91505092915050565b60008115159050919050565b6104c3816104ae565b82525050565b60006020820190506104de60008301846104ba565b92915050565b6104ed8161044b565b82525050565b600060208201905061050860008301846104e4565b92915050565b600080fd5b600080fd5b7f4e487b7100000000000000000000000000000000000000000000000000000000600052604160045260246000fd5b610550826103cb565b810181811067ffffffffffffffff8211171561056f5761056e610518565b5b80604052505050565b6000610582610437565b905061058e8282610547565b919050565b600067ffffffffffffffff8211156105ae576105ad610518565b5b6105b7826103cb565b9050602081019050919050565b82818337600083830152505050565b60006105e66105e184610593565b610578565b90508281526020810184848401111561060257610601610513565b5b61060d8482856105c4565b509392505050565b600082601f83011261062a5761062961050e565b5b813561063a8482602086016105d3565b91505092915050565b60006020828403121561065957610658610441565b5b600082013567ffffffffffffffff81111561067757610676610446565b5b61068384828501610615565b91505092915050565b7f4e487b7100000000000000000000000000000000000000000000000000000000600052602260045260246000fd5b600060028204905060018216806106d357607f821691505b602082108114156106e7576106e661068c565b5b50919050565b7f4e487b7100000000000000000000000000000000000000000000000000000000600052601160045260246000fd5b60006107278261044b565b91506107328361044b565b925082821015610745576107446106ed565b5b828203905092915050565b600061075b8261044b565b91506107668361044b565b9250827fffffffffffffffffffffffffffffffffffffffffffffffffffffffffffffffff0382111561079b5761079a6106ed565b5b82820190509291505056fea2646970667358221220baeef1f4b131703e48034b16730d1c8aeef65fe8bba749309d4146b39d01cff364736f6c634300080a0033",
  "immutableReferences": {},
  "source": "pragma solidity ^0.8.10;\n\ninterface Regulator {\n    function checkValue(uint amount) external returns (bool);\n    function loan() external returns (bool);\n}\n\ncontract Bank is Regulator {\n    uint private value;\n    \n    constructor(uint amount) public {\n        value = amount;\n    }\n    \n    function deposit(uint amount) public {\n        value += amount;\n    }\n    \n    function withdraw(uint amount) public {\n        if (checkValue(amount)) {\n            value -= amount;\n        }\n    }\n    \n    function balance() public view returns (uint) {\n        return value;\n    }\n    \n    function checkValue(uint amount) public returns (bool) {\n        // Classic mistake in the tutorial value should be above the amount\n        return value >= amount;\n    }\n    \n    function loan() public returns (bool) {\n        return value > 0;\n    }\n}\n\ncontract MyFirstContract is Bank(10) {\n    string private name;\n    uint private age;\n    \n    function setName(string memory newName) public {\n        name = newName;\n    }\n    \n    function getName() public view returns (string memory) {\n        return name;\n    }\n    \n    function setAge(uint newAge) public {\n        age = newAge;\n    }\n    \n    function getAge() public view returns (uint) {\n        return age;\n    }\n}",
  "sourcePath": "/Users/zuray/Documents/projects/kryptoCamp/Camp1/tz/learn-solidity/contracts/tutorial_2_inheritance.sol",
  "compiler": {
    "name": "solc",
    "version": "0.8.10+commit.fc410830.Emscripten.clang"
  },
  "schemaVersion": "3.4.4",
  "updatedAt": "2022-01-06T06:47:26.080Z",
  "devdoc": {
    "kind": "dev",
    "methods": {},
    "version": 1
  },
  "userdoc": {
    "kind": "user",
    "methods": {},
    "version": 1
  }
}