{
  "contractName": "tutorial_1_basic",
  "abi": [
    {
      "inputs": [
        {
          "internalType": "string",
          "name": "newName",
          "type": "string"
        }
      ],
      "name": "setName",
      "outputs": [],
      "stateMutability": "nonpayable",
      "type": "function"
    },
    {
      "inputs": [],
      "name": "getName",
      "outputs": [
        {
          "internalType": "string",
          "name": "",
          "type": "string"
        }
      ],
      "stateMutability": "view",
      "type": "function",
      "constant": true
    },
    {
      "inputs": [
        {
          "internalType": "uint256",
          "name": "myAge",
          "type": "uint256"
        }
      ],
      "name": "setAge",
      "outputs": [],
      "stateMutability": "nonpayable",
      "type": "function"
    },
    {
      "inputs": [],
      "name": "getAge",
      "outputs": [
        {
          "internalType": "uint256",
          "name": "",
          "type": "uint256"
        }
      ],
      "stateMutability": "view",
      "type": "function",
      "constant": true
    }
  ],
  "bytecode": "0x608060405234801561001057600080fd5b506103de806100206000396000f3fe608060405234801561001057600080fd5b5060043610610068577c0100000000000000000000000000000000000000000000000000000000600035046317d7de7c811461006d578063967e6e651461008b578063c47f00271461009c578063d5dcf127146100b1575b600080fd5b6100756100c4565b6040516100829190610206565b60405180910390f35b600154604051908152602001610082565b6100af6100aa36600461028a565b610156565b005b6100af6100bf36600461033b565b600155565b6060600080546100d390610354565b80601f01602080910402602001604051908101604052809291908181526020018280546100ff90610354565b801561014c5780601f106101215761010080835404028352916020019161014c565b820191906000526020600020905b81548152906001019060200180831161012f57829003601f168201915b5050505050905090565b805161016990600090602084019061016d565b5050565b82805461017990610354565b90600052602060002090601f01602090048101928261019b57600085556101e1565b82601f106101b457805160ff19168380011785556101e1565b828001600101855582156101e1579182015b828111156101e15782518255916020019190600101906101c6565b506101ed9291506101f1565b5090565b5b808211156101ed57600081556001016101f2565b600060208083528351808285015260005b8181101561023357858101830151858201604001528201610217565b81811115610245576000604083870101525b50601f01601f1916929092016040019392505050565b7f4e487b7100000000000000000000000000000000000000000000000000000000600052604160045260246000fd5b60006020828403121561029c57600080fd5b813567ffffffffffffffff808211156102b457600080fd5b818401915084601f8301126102c857600080fd5b8135818111156102da576102da61025b565b604051601f8201601f19908116603f011681019083821181831017156103025761030261025b565b8160405282815287602084870101111561031b57600080fd5b826020860160208301376000928101602001929092525095945050505050565b60006020828403121561034d57600080fd5b5035919050565b60028104600182168061036857607f821691505b602082108114156103a2577f4e487b7100000000000000000000000000000000000000000000000000000000600052602260045260246000fd5b5091905056fea2646970667358221220db5935dc25b9f49602f7c530b5ff6e5ce650e2d512677d7f36b70672b020ac8d64736f6c634300080a0033",
  "immutableReferences": {},
  "source": "pragma solidity ^0.8.10;\n\ncontract tutorial_1_basic {\n  string private name;\n  uint private age;\n\n  function setName(string memory newName) public {\n    name = newName;\n  }\n\n  function getName() public view returns(string memory) {\n    return name;\n  }\n\n  function setAge(uint myAge) public {\n    age = myAge;\n  }\n\n  function getAge() public view returns(uint) {\n    return age;\n  }\n}",
  "sourcePath": "/Users/zuray/Documents/projects/kryptoCamp/Camp1/tz/learn-solidity/contracts/tutorial_1_basic.sol",
  "compiler": {
    "name": "solc",
    "version": "0.8.10+commit.fc410830.Emscripten.clang"
  },
  "schemaVersion": "3.4.4",
  "updatedAt": "2022-01-06T08:05:10.195Z",
  "networkType": "ethereum",
  "devdoc": {
    "kind": "dev",
    "methods": {},
    "version": 1
  },
  "userdoc": {
    "kind": "user",
    "methods": {},
    "version": 1
  }
}