{
  "contractName": "tutorial_3_modifiers_and_error_handle",
  "abi": [
    {
      "inputs": [],
      "name": "balance",
      "outputs": [
        {
          "internalType": "uint256",
          "name": "",
          "type": "uint256"
        }
      ],
      "stateMutability": "view",
      "type": "function",
      "constant": true
    },
    {
      "inputs": [
        {
          "internalType": "uint256",
          "name": "amount",
          "type": "uint256"
        }
      ],
      "name": "checkSaving",
      "outputs": [
        {
          "internalType": "bool",
          "name": "",
          "type": "bool"
        }
      ],
      "stateMutability": "view",
      "type": "function",
      "constant": true
    },
    {
      "inputs": [
        {
          "internalType": "uint256",
          "name": "amount",
          "type": "uint256"
        }
      ],
      "name": "deposit",
      "outputs": [],
      "stateMutability": "nonpayable",
      "type": "function"
    },
    {
      "inputs": [],
      "name": "loan",
      "outputs": [
        {
          "internalType": "bool",
          "name": "",
          "type": "bool"
        }
      ],
      "stateMutability": "view",
      "type": "function",
      "constant": true
    },
    {
      "inputs": [
        {
          "internalType": "uint256",
          "name": "amount",
          "type": "uint256"
        }
      ],
      "name": "withdraw",
      "outputs": [],
      "stateMutability": "nonpayable",
      "type": "function"
    },
    {
      "inputs": [
        {
          "internalType": "string",
          "name": "newName",
          "type": "string"
        }
      ],
      "name": "setName",
      "outputs": [],
      "stateMutability": "nonpayable",
      "type": "function"
    },
    {
      "inputs": [],
      "name": "getName",
      "outputs": [
        {
          "internalType": "string",
          "name": "",
          "type": "string"
        }
      ],
      "stateMutability": "view",
      "type": "function",
      "constant": true
    },
    {
      "inputs": [
        {
          "internalType": "uint256",
          "name": "myAge",
          "type": "uint256"
        }
      ],
      "name": "setAge",
      "outputs": [],
      "stateMutability": "nonpayable",
      "type": "function"
    },
    {
      "inputs": [],
      "name": "getAge",
      "outputs": [
        {
          "internalType": "uint256",
          "name": "",
          "type": "uint256"
        }
      ],
      "stateMutability": "view",
      "type": "function",
      "constant": true
    }
  ],
  "bytecode": "0x608060405234801561001057600080fd5b50600a60005560018054600160a060020a03191633179055610563806100376000396000f3fe608060405234801561001057600080fd5b50600436106100b0576000357c010000000000000000000000000000000000000000000000000000000090048063b69ef8a811610083578063b69ef8a81461011c578063b6b55f2514610124578063c47f002714610137578063d285b7b41461014a578063d5dcf1271461015457600080fd5b8063159041c6146100b557806317d7de7c146100e05780632e1a7d4d146100f5578063967e6e651461010a575b600080fd5b6100cb6100c336600461032d565b600054101590565b60405190151581526020015b60405180910390f35b6100e8610167565b6040516100d79190610346565b61010861010336600461032d565b6101f9565b005b6003545b6040519081526020016100d7565b60005461010e565b61010861013236600461032d565b610248565b6101086101453660046103ca565b61027d565b60005415156100cb565b61010861016236600461032d565b600355565b6060600280546101769061047b565b80601f01602080910402602001604051908101604052809291908181526020018280546101a29061047b565b80156101ef5780601f106101c4576101008083540402835291602001916101ef565b820191906000526020600020905b8154815290600101906020018083116101d257829003601f168201915b5050505050905090565b60015473ffffffffffffffffffffffffffffffffffffffff16331461021d57600080fd5b61022981600054101590565b15610245578060008082825461023f91906104fe565b90915550505b50565b60015473ffffffffffffffffffffffffffffffffffffffff16331461026c57600080fd5b8060008082825461023f9190610515565b8051610290906002906020840190610294565b5050565b8280546102a09061047b565b90600052602060002090601f0160209004810192826102c25760008555610308565b82601f106102db57805160ff1916838001178555610308565b82800160010185558215610308579182015b828111156103085782518255916020019190600101906102ed565b50610314929150610318565b5090565b5b808211156103145760008155600101610319565b60006020828403121561033f57600080fd5b5035919050565b600060208083528351808285015260005b8181101561037357858101830151858201604001528201610357565b81811115610385576000604083870101525b50601f01601f1916929092016040019392505050565b7f4e487b7100000000000000000000000000000000000000000000000000000000600052604160045260246000fd5b6000602082840312156103dc57600080fd5b813567ffffffffffffffff808211156103f457600080fd5b818401915084601f83011261040857600080fd5b81358181111561041a5761041a61039b565b604051601f8201601f19908116603f011681019083821181831017156104425761044261039b565b8160405282815287602084870101111561045b57600080fd5b826020860160208301376000928101602001929092525095945050505050565b60028104600182168061048f57607f821691505b602082108114156104c9577f4e487b7100000000000000000000000000000000000000000000000000000000600052602260045260246000fd5b50919050565b7f4e487b7100000000000000000000000000000000000000000000000000000000600052601160045260246000fd5b600082821015610510576105106104cf565b500390565b60008219821115610528576105286104cf565b50019056fea2646970667358221220b7d5542652458e3719eb996612ec31607cf5d744d312bd8c4360bcfdb1d7a85264736f6c634300080a0033",
  "immutableReferences": {},
  "source": "pragma solidity ^0.8.10;\n\ninterface Regulator2 {\n  function checkSaving(uint amount) external returns (bool);\n  function loan() external returns (bool);\n}\ncontract Bank2 is Regulator2 {\n  uint private saving;\n  address private owner;\n\n  modifier ownerFunc {\n    require(owner == msg.sender); // require, revert, assert\n    _; //  function\n  }\n\n  constructor(uint amount) {\n    saving = amount;\n    owner = msg.sender;\n  }\n\n  function deposit(uint amount) public ownerFunc {\n    saving +=amount;\n  }\n\n  function withdraw(uint amount) public ownerFunc {\n    if (checkSaving((amount))) {\n     saving -=amount;\n    }\n  }\n\n  function balance() public view returns(uint) {\n    return saving;\n  }\n\n  function checkSaving(uint amount) public view returns (bool) {\n    return saving >= amount;\n  }\n\n  function loan() public view returns (bool) {\n    return saving > 0;\n  }\n}\ncontract tutorial_3_modifiers_and_error_handle is Bank2(10) {\n  string private name;\n  uint private age;\n\n  function setName(string memory newName) public {\n    name = newName;\n  }\n\n  function getName() public view returns(string memory) {\n    return name;\n  }\n\n  function setAge(uint myAge) public {\n    age = myAge;\n  }\n\n  function getAge() public view returns(uint) {\n    return age;\n  }\n}",
  "sourcePath": "/Users/zuray/Documents/projects/kryptoCamp/Camp1/tz/learn-solidity/contracts/tutorial_3_modifiers_and_error_handle.sol",
  "compiler": {
    "name": "solc",
    "version": "0.8.10+commit.fc410830.Emscripten.clang"
  },
  "schemaVersion": "3.4.4",
  "updatedAt": "2022-01-06T09:18:53.138Z",
  "networkType": "ethereum",
  "devdoc": {
    "kind": "dev",
    "methods": {},
    "version": 1
  },
  "userdoc": {
    "kind": "user",
    "methods": {},
    "version": 1
  }
}