{
  "contractName": "tutorial_2_inheritance",
  "abi": [
    {
      "inputs": [],
      "name": "balance",
      "outputs": [
        {
          "internalType": "uint256",
          "name": "",
          "type": "uint256"
        }
      ],
      "stateMutability": "view",
      "type": "function"
    },
    {
      "inputs": [
        {
          "internalType": "uint256",
          "name": "amount",
          "type": "uint256"
        }
      ],
      "name": "checkValue",
      "outputs": [
        {
          "internalType": "bool",
          "name": "",
          "type": "bool"
        }
      ],
      "stateMutability": "view",
      "type": "function"
    },
    {
      "inputs": [
        {
          "internalType": "uint256",
          "name": "amount",
          "type": "uint256"
        }
      ],
      "name": "deposit",
      "outputs": [],
      "stateMutability": "nonpayable",
      "type": "function"
    },
    {
      "inputs": [],
      "name": "loan",
      "outputs": [
        {
          "internalType": "bool",
          "name": "",
          "type": "bool"
        }
      ],
      "stateMutability": "view",
      "type": "function"
    },
    {
      "inputs": [
        {
          "internalType": "uint256",
          "name": "amount",
          "type": "uint256"
        }
      ],
      "name": "withdraw",
      "outputs": [],
      "stateMutability": "nonpayable",
      "type": "function"
    },
    {
      "inputs": [
        {
          "internalType": "string",
          "name": "newName",
          "type": "string"
        }
      ],
      "name": "setName",
      "outputs": [],
      "stateMutability": "nonpayable",
      "type": "function"
    },
    {
      "inputs": [],
      "name": "getName",
      "outputs": [
        {
          "internalType": "string",
          "name": "",
          "type": "string"
        }
      ],
      "stateMutability": "view",
      "type": "function"
    },
    {
      "inputs": [
        {
          "internalType": "uint256",
          "name": "myAge",
          "type": "uint256"
        }
      ],
      "name": "setAge",
      "outputs": [],
      "stateMutability": "nonpayable",
      "type": "function"
    },
    {
      "inputs": [],
      "name": "getAge",
      "outputs": [
        {
          "internalType": "uint256",
          "name": "",
          "type": "uint256"
        }
      ],
      "stateMutability": "view",
      "type": "function"
    }
  ],
  "bytecode": "0x608060405234801561001057600080fd5b50600a60005561050d806100256000396000f3fe608060405234801561001057600080fd5b50600436106100b0576000357c010000000000000000000000000000000000000000000000000000000090048063b69ef8a811610083578063b69ef8a814610120578063b6b55f2514610128578063c47f00271461013b578063d285b7b41461014e578063d5dcf1271461015857600080fd5b806317d7de7c146100b557806318db62fb146100d35780632e1a7d4d146100f9578063967e6e651461010e575b600080fd5b6100bd61016b565b6040516100ca91906102d7565b60405180910390f35b6100e96100e136600461032c565b600054101590565b60405190151581526020016100ca565b61010c61010736600461032c565b6101fd565b005b6002545b6040519081526020016100ca565b600054610112565b61010c61013636600461032c565b610216565b61010c610149366004610374565b610227565b60005415156100e9565b61010c61016636600461032c565b600255565b60606001805461017a90610425565b80601f01602080910402602001604051908101604052809291908181526020018280546101a690610425565b80156101f35780601f106101c8576101008083540402835291602001916101f3565b820191906000526020600020905b8154815290600101906020018083116101d657829003601f168201915b5050505050905090565b8060008082825461020e91906104a8565b909155505050565b8060008082825461020e91906104bf565b805161023a90600190602084019061023e565b5050565b82805461024a90610425565b90600052602060002090601f01602090048101928261026c57600085556102b2565b82601f1061028557805160ff19168380011785556102b2565b828001600101855582156102b2579182015b828111156102b2578251825591602001919060010190610297565b506102be9291506102c2565b5090565b5b808211156102be57600081556001016102c3565b600060208083528351808285015260005b81811015610304578581018301518582016040015282016102e8565b81811115610316576000604083870101525b50601f01601f1916929092016040019392505050565b60006020828403121561033e57600080fd5b5035919050565b7f4e487b7100000000000000000000000000000000000000000000000000000000600052604160045260246000fd5b60006020828403121561038657600080fd5b813567ffffffffffffffff8082111561039e57600080fd5b818401915084601f8301126103b257600080fd5b8135818111156103c4576103c4610345565b604051601f8201601f19908116603f011681019083821181831017156103ec576103ec610345565b8160405282815287602084870101111561040557600080fd5b826020860160208301376000928101602001929092525095945050505050565b60028104600182168061043957607f821691505b60208210811415610473577f4e487b7100000000000000000000000000000000000000000000000000000000600052602260045260246000fd5b50919050565b7f4e487b7100000000000000000000000000000000000000000000000000000000600052601160045260246000fd5b6000828210156104ba576104ba610479565b500390565b600082198211156104d2576104d2610479565b50019056fea26469706673582212201a2baf0b4262101cd326f6f547197ba8598864f935f3078ddeed4cdb53fe61d364736f6c634300080a0033",
  "immutableReferences": {},
  "source": "pragma solidity ^0.8.10;\n\ninterface Regulator {\n  function checkValue(uint amount) external returns (bool);\n  function loan() external returns (bool);\n}\ncontract Bank is Regulator {\n  uint private value;\n\n  constructor(uint amount) {\n    value = amount;\n  }\n\n  function deposit(uint amount) public {\n    value +=amount;\n  }\n\n  function withdraw(uint amount) public {\n    value -=amount;\n  }\n\n  function balance() public view returns(uint) {\n    return value;\n  }\n\n  function checkValue(uint amount) public view returns (bool) {\n    return value >= amount;\n  }\n\n  function loan() public view returns (bool) {\n    return value > 0;\n  }\n}\ncontract tutorial_2_inheritance is Bank(10) {\n  string private name;\n  uint private age;\n\n  function setName(string memory newName) public {\n    name = newName;\n  }\n\n  function getName() public view returns(string memory) {\n    return name;\n  }\n\n  function setAge(uint myAge) public {\n    age = myAge;\n  }\n\n  function getAge() public view returns(uint) {\n    return age;\n  }\n}",
  "sourcePath": "/Users/zuray/Documents/projects/kryptoCamp/Camp1/tz/learn-solidity/contracts/tutorial_2_inheritance.sol",
  "compiler": {
    "name": "solc",
    "version": "0.8.10+commit.fc410830.Emscripten.clang"
  },
  "schemaVersion": "3.4.4",
  "updatedAt": "2022-01-06T08:05:05.748Z",
  "devdoc": {
    "kind": "dev",
    "methods": {},
    "version": 1
  },
  "userdoc": {
    "kind": "user",
    "methods": {},
    "version": 1
  }
}