{
  "contractName": "tutorial_2_inheritance",
  "abi": [
    {
      "inputs": [],
      "name": "balance",
      "outputs": [
        {
          "internalType": "uint256",
          "name": "",
          "type": "uint256"
        }
      ],
      "stateMutability": "view",
      "type": "function",
      "constant": true
    },
    {
      "inputs": [
        {
          "internalType": "uint256",
          "name": "amount",
          "type": "uint256"
        }
      ],
      "name": "checkValue",
      "outputs": [
        {
          "internalType": "bool",
          "name": "",
          "type": "bool"
        }
      ],
      "stateMutability": "view",
      "type": "function",
      "constant": true
    },
    {
      "inputs": [
        {
          "internalType": "uint256",
          "name": "amount",
          "type": "uint256"
        }
      ],
      "name": "deposit",
      "outputs": [],
      "stateMutability": "nonpayable",
      "type": "function"
    },
    {
      "inputs": [],
      "name": "loan",
      "outputs": [
        {
          "internalType": "bool",
          "name": "",
          "type": "bool"
        }
      ],
      "stateMutability": "view",
      "type": "function",
      "constant": true
    },
    {
      "inputs": [
        {
          "internalType": "uint256",
          "name": "amount",
          "type": "uint256"
        }
      ],
      "name": "withdraw",
      "outputs": [],
      "stateMutability": "nonpayable",
      "type": "function"
    },
    {
      "inputs": [
        {
          "internalType": "string",
          "name": "newName",
          "type": "string"
        }
      ],
      "name": "setName",
      "outputs": [],
      "stateMutability": "nonpayable",
      "type": "function"
    },
    {
      "inputs": [],
      "name": "getName",
      "outputs": [
        {
          "internalType": "string",
          "name": "",
          "type": "string"
        }
      ],
      "stateMutability": "view",
      "type": "function",
      "constant": true
    },
    {
      "inputs": [
        {
          "internalType": "uint256",
          "name": "myAge",
          "type": "uint256"
        }
      ],
      "name": "setAge",
      "outputs": [],
      "stateMutability": "nonpayable",
      "type": "function"
    },
    {
      "inputs": [],
      "name": "getAge",
      "outputs": [
        {
          "internalType": "uint256",
          "name": "",
          "type": "uint256"
        }
      ],
      "stateMutability": "view",
      "type": "function",
      "constant": true
    }
  ],
  "bytecode": "0x608060405234801561001057600080fd5b50600a60005561051f806100256000396000f3fe608060405234801561001057600080fd5b50600436106100b0576000357c010000000000000000000000000000000000000000000000000000000090048063b69ef8a811610083578063b69ef8a814610120578063b6b55f2514610128578063c47f00271461013b578063d285b7b41461014e578063d5dcf1271461015857600080fd5b806317d7de7c146100b557806318db62fb146100d35780632e1a7d4d146100f9578063967e6e651461010e575b600080fd5b6100bd61016b565b6040516100ca91906102e9565b60405180910390f35b6100e96100e136600461033e565b600054101590565b60405190151581526020016100ca565b61010c61010736600461033e565b6101fd565b005b6002545b6040519081526020016100ca565b600054610112565b61010c61013636600461033e565b610228565b61010c610149366004610386565b610239565b60005415156100e9565b61010c61016636600461033e565b600255565b60606001805461017a90610437565b80601f01602080910402602001604051908101604052809291908181526020018280546101a690610437565b80156101f35780601f106101c8576101008083540402835291602001916101f3565b820191906000526020600020905b8154815290600101906020018083116101d657829003601f168201915b5050505050905090565b61020981600054101590565b15610225578060008082825461021f91906104ba565b90915550505b50565b8060008082825461021f91906104d1565b805161024c906001906020840190610250565b5050565b82805461025c90610437565b90600052602060002090601f01602090048101928261027e57600085556102c4565b82601f1061029757805160ff19168380011785556102c4565b828001600101855582156102c4579182015b828111156102c45782518255916020019190600101906102a9565b506102d09291506102d4565b5090565b5b808211156102d057600081556001016102d5565b600060208083528351808285015260005b81811015610316578581018301518582016040015282016102fa565b81811115610328576000604083870101525b50601f01601f1916929092016040019392505050565b60006020828403121561035057600080fd5b5035919050565b7f4e487b7100000000000000000000000000000000000000000000000000000000600052604160045260246000fd5b60006020828403121561039857600080fd5b813567ffffffffffffffff808211156103b057600080fd5b818401915084601f8301126103c457600080fd5b8135818111156103d6576103d6610357565b604051601f8201601f19908116603f011681019083821181831017156103fe576103fe610357565b8160405282815287602084870101111561041757600080fd5b826020860160208301376000928101602001929092525095945050505050565b60028104600182168061044b57607f821691505b60208210811415610485577f4e487b7100000000000000000000000000000000000000000000000000000000600052602260045260246000fd5b50919050565b7f4e487b7100000000000000000000000000000000000000000000000000000000600052601160045260246000fd5b6000828210156104cc576104cc61048b565b500390565b600082198211156104e4576104e461048b565b50019056fea26469706673582212200b08b4c180f4af71fab5d923b5ffe4c56b1c8111e72e2533865a885b19add30d64736f6c634300080a0033",
  "immutableReferences": {},
  "source": "pragma solidity ^0.8.10;\n\ninterface Regulator {\n  function checkValue(uint amount) external returns (bool);\n  function loan() external returns (bool);\n}\ncontract Bank is Regulator {\n  uint private value;\n\n  constructor(uint amount) {\n    value = amount;\n  }\n\n  function deposit(uint amount) public {\n    value +=amount;\n  }\n\n  function withdraw(uint amount) public {\n    if (checkValue((amount))) {\n     value -=amount;\n    }\n  }\n\n  function balance() public view returns(uint) {\n    return value;\n  }\n\n  function checkValue(uint amount) public view returns (bool) {\n    return value >= amount;\n  }\n\n  function loan() public view returns (bool) {\n    return value > 0;\n  }\n}\ncontract tutorial_2_inheritance is Bank(10) {\n  string private name;\n  uint private age;\n\n  function setName(string memory newName) public {\n    name = newName;\n  }\n\n  function getName() public view returns(string memory) {\n    return name;\n  }\n\n  function setAge(uint myAge) public {\n    age = myAge;\n  }\n\n  function getAge() public view returns(uint) {\n    return age;\n  }\n}",
  "sourcePath": "/Users/zuray/Documents/projects/kryptoCamp/learn-solidity/contracts/tutorial_2_inheritance.sol",
  "compiler": {
    "name": "solc",
    "version": "0.8.10+commit.fc410830.Emscripten.clang"
  },
  "schemaVersion": "3.4.4",
  "updatedAt": "2022-01-06T12:10:59.594Z",
  "networkType": "ethereum",
  "devdoc": {
    "kind": "dev",
    "methods": {},
    "version": 1
  },
  "userdoc": {
    "kind": "user",
    "methods": {},
    "version": 1
  }
}