{
  "contractName": "tutorial_4_imports_and_libraries",
  "abi": [
    {
      "inputs": [
        {
          "internalType": "uint256",
          "name": "_base",
          "type": "uint256"
        }
      ],
      "name": "testIncrement",
      "outputs": [
        {
          "internalType": "uint256",
          "name": "",
          "type": "uint256"
        }
      ],
      "stateMutability": "pure",
      "type": "function",
      "constant": true
    },
    {
      "inputs": [
        {
          "internalType": "uint256",
          "name": "_base",
          "type": "uint256"
        }
      ],
      "name": "testDecrement",
      "outputs": [
        {
          "internalType": "uint256",
          "name": "",
          "type": "uint256"
        }
      ],
      "stateMutability": "pure",
      "type": "function",
      "constant": true
    },
    {
      "inputs": [
        {
          "internalType": "uint256",
          "name": "_base",
          "type": "uint256"
        },
        {
          "internalType": "uint256",
          "name": "_value",
          "type": "uint256"
        }
      ],
      "name": "testIncrementByValue",
      "outputs": [
        {
          "internalType": "uint256",
          "name": "",
          "type": "uint256"
        }
      ],
      "stateMutability": "pure",
      "type": "function",
      "constant": true
    },
    {
      "inputs": [
        {
          "internalType": "uint256",
          "name": "_base",
          "type": "uint256"
        },
        {
          "internalType": "uint256",
          "name": "_value",
          "type": "uint256"
        }
      ],
      "name": "testDecrementByValue",
      "outputs": [
        {
          "internalType": "uint256",
          "name": "",
          "type": "uint256"
        }
      ],
      "stateMutability": "pure",
      "type": "function",
      "constant": true
    }
  ],
  "bytecode": "0x608060405234801561001057600080fd5b5061033a806100206000396000f3fe608060405234801561001057600080fd5b5060043610610068577c01000000000000000000000000000000000000000000000000000000006000350463169524d3811461006d5780636d87ae2b14610092578063acec036b146100a5578063e225a043146100b8575b600080fd5b61008061007b3660046102b0565b6100cb565b60405190815260200160405180910390f35b6100806100a03660046102d2565b61016a565b6100806100b33660046102d2565b610201565b6100806100c63660046102b0565b610255565b6040517fdccce74d000000000000000000000000000000000000000000000000000000008152600481018390526024810182905260009073__IntExtended___________________________9063dccce74d906044015b602060405180830381865af415801561013f573d6000803e3d6000fd5b505050506040513d601f19601f8201168201806040525081019061016391906102eb565b9392505050565b6040517f7cf5dab00000000000000000000000000000000000000000000000000000000081526004810182905260009073__IntExtended___________________________90637cf5dab0906024015b602060405180830381865af41580156101d7573d6000803e3d6000fd5b505050506040513d601f19601f820116820180604052508101906101fb91906102eb565b92915050565b6040517f3a9ebefd0000000000000000000000000000000000000000000000000000000081526004810182905260009073__IntExtended___________________________90633a9ebefd906024016101ba565b6040517f7669a640000000000000000000000000000000000000000000000000000000008152600481018390526024810182905260009073__IntExtended___________________________90637669a64090604401610122565b600080604083850312156102c357600080fd5b50508035926020909101359150565b6000602082840312156102e457600080fd5b5035919050565b6000602082840312156102fd57600080fd5b505191905056fea2646970667358221220353f6cc4d9970096217a6a542ee72802170d6c33c672c3d8035f8ef37445243464736f6c634300080a0033",
  "immutableReferences": {},
  "source": "pragma solidity ^0.8.10;\n\nlibrary IntExtended {\n  function increment(uint _self) public pure returns(uint) {\n    return _self + 1;\n  }\n\n  function decrement(uint _self) public pure returns(uint) {\n    return _self - 1;\n  }\n\n  function incrementByValue(uint _self, uint _value) public pure returns(uint) {\n    return _self + _value;\n  }\n\n  function decrementByValue(uint _self, uint _value) public pure returns(uint) {\n    return _self - _value;\n  }\n}\n\ncontract tutorial_4_imports_and_libraries {\n  using IntExtended for uint;\n\n  function testIncrement(uint _base) public pure returns (uint) {\n    return _base.increment();\n  }\n\n  function testDecrement(uint _base) public pure returns (uint) {\n    return _base.decrement();\n  }\n\n  function testIncrementByValue(uint _base, uint _value) public pure returns (uint) {\n    return _base.incrementByValue(_value);\n  }\n\n  function testDecrementByValue(uint _base, uint _value) public pure returns (uint) {\n    return _base.decrementByValue(_value);\n  }\n}",
  "sourcePath": "/Users/zuray/Documents/projects/kryptoCamp/learn-solidity/contracts/tutorial_4_imports_and_libraries.sol",
  "compiler": {
    "name": "solc",
    "version": "0.8.10+commit.fc410830.Emscripten.clang"
  },
  "schemaVersion": "3.4.4",
  "updatedAt": "2022-01-06T12:10:59.606Z",
  "networkType": "ethereum",
  "devdoc": {
    "kind": "dev",
    "methods": {},
    "version": 1
  },
  "userdoc": {
    "kind": "user",
    "methods": {},
    "version": 1
  }
}