{
  "contractName": "tutorial_5_event_log_and_transaction_info",
  "abi": [
    {
      "inputs": [],
      "stateMutability": "nonpayable",
      "type": "constructor"
    },
    {
      "anonymous": false,
      "inputs": [
        {
          "indexed": false,
          "internalType": "address",
          "name": "",
          "type": "address"
        }
      ],
      "name": "SenderLogger",
      "type": "event"
    },
    {
      "anonymous": false,
      "inputs": [
        {
          "indexed": false,
          "internalType": "uint256",
          "name": "",
          "type": "uint256"
        }
      ],
      "name": "ValueLogger",
      "type": "event"
    },
    {
      "stateMutability": "payable",
      "type": "fallback"
    },
    {
      "inputs": [],
      "name": "transaction",
      "outputs": [],
      "stateMutability": "nonpayable",
      "type": "function"
    }
  ],
  "bytecode": "0x608060405234801561001057600080fd5b5060008054600160a060020a03191633179055610144806100326000396000f3fe60806040526004361061003a577c01000000000000000000000000000000000000000000000000000000006000350463c99de57e81146100db575b60005473ffffffffffffffffffffffffffffffffffffffff16331461005e57600080fd5b670de0b6b3a764000034101561007357600080fd5b6040513381527f53f3cb7e2915e37456381a51d56ac61aa8c1afd56e5c1f055dd1b4946b9a29cc9060200160405180910390a16040513481527f0a51b1385c26fe73e32df22a7afebd5c8b7949dcd7c0c96be29b5e6d2b6de1c59060200160405180910390a1005b3480156100e757600080fd5b5061010c6000805473ffffffffffffffffffffffffffffffffffffffff191633179055565b00fea26469706673582212203aba7d19bc2a72c9e521fe69cb26b85eb41b0ac1a58bfcbf92b04aea4242b7ac64736f6c634300080a0033",
  "immutableReferences": {},
  "source": "pragma solidity ^0.8.10;\n\ncontract tutorial_5_event_log_and_transaction_info {\n\n  event SenderLogger(address);\n  event ValueLogger(uint);\n\n  address private owner;\n\n  constructor() {\n    owner = msg.sender;\n  }\n\n  modifier isOwner {\n    require(owner == msg.sender);\n    _;\n  }\n\n  modifier validValue {\n    require(msg.value >= 1 ether);\n    _;\n  }\n  function transaction() public {\n    owner = msg.sender;\n  }\n  fallback() external payable isOwner validValue{\n    emit SenderLogger(msg.sender);\n    emit ValueLogger(msg.value);\n  }\n}",
  "sourcePath": "/Users/zuray/Documents/projects/kryptoCamp/learn-solidity/contracts/tutorial_5_event_log_and_transaction_info.sol",
  "compiler": {
    "name": "solc",
    "version": "0.8.10+commit.fc410830.Emscripten.clang"
  },
  "schemaVersion": "3.4.4",
  "updatedAt": "2022-01-06T12:00:20.163Z",
  "devdoc": {
    "kind": "dev",
    "methods": {},
    "version": 1
  },
  "userdoc": {
    "kind": "user",
    "methods": {},
    "version": 1
  }
}